:100000000000022015060000410600004106000025
:1000100041060000410600004106000041060000C4
:1000200041060000410600004106000041060000B4
:1000300019B50000410600004106000009A30000B8
:100040002939000055A200009D93000041060000E0
:1000500041060000517A0000410600004106000000
:100060004106000041060000410600007DA200009C
:10007000D9B40000FDB400004106000041060000B4
:100080004106000041060000410600004106000054
:100090004106000041060000019E0000A99E0000EC
:1000A0004106000041060000410600004106000034
:1000B0004106000041060000410600004106000024
:1000C0004106000041060000410600004106000014
:1000D00041060000410600004106000010B5054C35
:1000E000237833B9044B13B10448AFF300800123E4
:1000F000237010BD00170020000000005CD100003C
:10010000084B10B51BB108480849AFF300800848F8
:10011000036803B910BD074B002BFBD0BDE81040AE
:10012000184700BF000000005CD100000417002049
:100130009016002000000000154B002B08BF134B49
:100140009D46A3F5803A00218B460F461348144A7A
:10015000121A0CF0A8F90F4B002B00D098470E4B49
:10016000002B00D098470020002104000D000D480E
:10017000002802D00C48AFF300800CF063F9200097
:1001800029000AF0DBFA0CF049F900BF0000080072
:100190000000022000000000000000000017002006
:1001A000EC3F0020000000000000000080B485B09B
:1001B00000AF786039607B6803F10473DA003B6854
:1001C00013449B00FB60FB681B6818461437BD4650
:1001D0005DF8047B704700BF80B582B000AF034676
:1001E0003960FB71FB79002B1FD0FB79012B19D0F3
:1001F000FB79022B13D0FB79032B0DD0FB79042B59
:1002000007D0FB79052B02D141F6FF730FE00023E5
:100210000DE04FF6FF730AE04FF6FF7307E04FF66D
:10022000FF7304E04FF6FF7301E04FF6FF733A6887
:10023000134103F00103002B04D10B4840F2593164
:1002400008F0E0FB0949FA793B68012000FA03F362
:1002500018461346DB0013449B000B4410335860D0
:100260000837BD4680BD00BFF0C4000000600040FC
:1002700080B582B000AF03463960FB71FB79002B7B
:100280001FD0FB79012B19D0FB79022B13D0FB79FE
:10029000032B0DD0FB79042B07D0FB79052B02D162
:1002A00041F6FF730FE000230DE04FF6FF730AE005
:1002B0004FF6FF7307E04FF6FF7304E04FF6FF734E
:1002C00001E04FF6FF733A68134103F00103002B7E
:1002D00004D10C4840F2713108F094FBFA791346CE
:1002E000DB0013449B000C3303F1804303F5C04350
:1002F00018463968FFF75AFF034618460837BD46C7
:1003000080BD00BFF0C4000080B582B000AF0346DE
:100310003960FB71FB79002B1FD0FB79012B19D0C1
:10032000FB79022B13D0FB79032B0DD0FB79042B27
:1003300007D0FB79052B02D141F6FF730FE00023B4
:100340000DE04FF6FF730AE04FF6FF7307E04FF63C
:10035000FF7304E04FF6FF7301E04FF6FF733A6856
:10036000134103F00103002B04D10B4840F2863106
:1003700008F048FB0949FA793B68012000FA03F3C9
:1003800018461346DB0013449B000B4410331860DF
:100390000837BD4680BD00BFF0C4000000600040CB
:1003A00080B582B000AF1248012102F099FD1148DA
:1003B000012102F095FD00237B6011E00E4A7B686D
:1003C00012F833100C4A7B68DB0013445B68084664
:1003D00019460422002303F00DFD7B6801337B6086
:1003E0007B68012BEADD002318460837BD4680BD37
:1003F0004081040000D2040054C5000080B584B0E0
:1004000000AF0023FB600023BB6001237B601FE083
:10041000134AFB6812F83310114AFB68DB001344DF
:100420005B6808461946FFF723FF0346002B14BFFD
:1004300001230023FB70FB78002B03D0BA687B6894
:100440001343BB60FB680133FB607B685B007B6030
:10045000FB68012BDCDDBB6818461037BD4680BD4C
:1004600054C5000080B584B000AF78600023FB6005
:100470000123BB6025E07A68BB681340002B0DD0D8
:10048000144AFB6812F83310124AFB68DB0013446D
:100490005B6808461946FFF737FF0CE00D4AFB681A
:1004A00012F833100B4AFB68DB0013445B68084604
:1004B0001946FFF791FEFB680133FB60BB685B00E8
:1004C000BB60FB68012BD6DD002318461037BD4604
:1004D00080BD00BF54C5000080B582B000AF394A6E
:1004E000384B5B6C43F400535364374A364BD3F8B4
:1004F000203143F00403C2F82031334A324BD3F8A1
:10050000203123F44073C2F820312F4A2E4BD3F808
:10051000B83023F47063C2F8B8302B4A2A4BD3F8B2
:10052000B83043F48063C2F8B830264B10221A6208
:1005300000BF244BDB6A03F02003002BF9D0234AD1
:10054000224B1B6843F001031360204A1F4BDB68FA
:1005500043F08073D3601E4B1E4A1A601E4802F09F
:100560002DFD034603F5D52303F2FC437B607B6836
:10057000DB081A4AA2FB03239B0A3B60184A3B682C
:10058000013B1361164B0222C3F8F020144B4FF4C9
:100590008072C3F804234FF06043124AC3F8B02FAF
:1005A0004FF06043104AC3F8802E4FF060424FF086
:1005B0006043D3F8003E43F00103C2F8003E083721
:1005C000BD4680BD00800C4000600040F0ED00E0C2
:1005D000001000E0FF13014006000C0017916502B7
:1005E000000004E055CEACC50900010080B582B022
:1005F00000AF4FF07E637B607B681B68002B01D1EE
:10060000002302E0FFF768FF012318460837BD46C4
:1006100080BD00BF064880470649074A074B9A42FB
:10062000BEBF51F8040B42F8040BF8E7FFF784FD56
:10063000C107000068D100000000002094160020CF
:10064000FEE700BF80B400AF044BDB6C1B0EDBB2D7
:100650001846BD465DF8047B704700BFB081E00FCF
:1006600080B582B000AF00F01FF87860074B5B6880
:1006700003F00F031A467B68D3407B60044A7B6813
:1006800013607B6818460837BD4680BD00800C406B
:100690000800002080B400AF024B1846BD465DF84C
:1006A000047B7047006CDC0280B582B000AF334B36
:1006B000DB6A03F47053B3F5805F0AD0B3F5005FD3
:1006C00003D0B3F5006F08D00BE02D4B1B687B60A7
:1006D00047E04FF400437B6043E02A4B1B687B609C
:1006E0003FE0264BDB6803F4E063B3F5007F1BD0EB
:1006F000B3F5007F05D8002B24D0B3F5807F16D04A
:100700002BE0B3F5806F09D0B3F5A06F03D0B3F53C
:10071000407F06D021E01C4B7B6021E01B4B7B60BF
:100720001EE01B4B7B601BE01A4B7B6018E0FFF761
:1007300089FF0346122B02D9174B7B6010E0174B41
:100740007B600DE0FFF77EFF0346122B02D9144BAE
:100750007B6005E0134B7B6002E000237B6000BF01
:1007600000BF064B1B6803F4E0339B0B01337A6830
:10077000B2FBF3F318460837BD4680BD00800C403D
:100780000400002000000020003FAB01406F40014A
:10079000809FD500C0D8A70040B56400C0CF6A00D4
:1007A000804F120040420F0080B400AF034B1B6823
:1007B0001846BD465DF8047B704700BF000000206E
:1007C00080B400AFBD465DF8047B704780B400AFD5
:1007D0004FF400431846BD465DF8047B704700BFE8
:1007E00080B400AF4FF47A731846BD465DF8047BC1
:1007F000704700BF80B400AF034B1B681846BD466E
:100800005DF8047B704700BF0400002080B500AF96
:1008100000F00AFC00F0A2FB80BD00BF80B584B0F0
:1008200000AF78606FF00203FB607B681B7803F019
:100830006003DBB2202B5DD17B681B7803F01F03C4
:10084000DBB2012B56D17B685B78212B04D0222BA5
:1008500042D0202B20D04DE07B685B889BB2002BE0
:1008600019D17B689B889BB2022B14D17B68DB88F3
:100870009BB2072B0FD17B681B7823F07F03DBB281
:10088000002B08D000201E490722002305F05EFD42
:100890000023FB602EE02DE07B685B889BB2002B81
:1008A00019D17B689B889BB2022B14D17B68DB88B3
:1008B0009BB2072B0FD17B681B7823F07F03DBB241
:1008C000002B08D100200E4907220E4B05F0FAFB41
:1008D0000023FB600EE00DE07B689B889BB2022B3F
:1008E00007D17B68DB889BB2002B02D10023FB6021
:1008F000FFE700BFFB6818461037BD4680BD00BF4C
:100900000C000020210E000090B587B002AF034616
:100910000A46FB711346BB71BB79052B48D1314B9D
:1009200000221A60304B01221A70304B00221A70DC
:100930002C4B1B682E4A52F82330012019464022C6
:100940002C4B05F0BFFB2C4B00221A602B4B0022D6
:100950001A602B4B00221A602A4B01221A702A4B74
:1009600000221A70294B01221A70234B1B68284A57
:1009700052F82340274B00937E230193012001214D
:100980000022234603F046F80A23FB60224B1B6833
:100990004CF25032B2FBF3F3BB60BA68FB6893428F
:1009A00038BF1346012019461C4A08F0B1FE15E075
:1009B000FB79052B09D1BB79062B06D0012008F065
:1009C00045FF174B0322DA6208E0BB79062B05D1FD
:1009D000012008F03BFF124B0322DA621437BD46B8
:1009E00090BD00BF9C180020B1180020B218002054
:1009F00014000020250A0000A4180020AC180020D4
:100A0000A8180020B4180020B3180020B018002047
:100A10001C0000201CC400400C0000205D0D0000E4
:100A200000200C4080B586B002AF0346B9607A6002
:100A3000FB7397F90F30002B35D1BB68002B32D0F8
:100A40001B4B1B6883F00103194A1360194B1B7879
:100A500083F00103DBB2002B1FD0164B01221A706A
:100A6000134B1B6883F00103134A52F82320BB6821
:100A7000013B009201930020012100220F4B02F064
:100A8000C9FF0B4B1B680C4A52F823300120194652
:100A900040220B4B05F016FB05E00A4B00221A70B2
:100AA000BB68094A1360002318461037BD4680BD55
:100AB0009C180020B21800201400002034C400400C
:100AC000250A0000B1180020A018002080B588B0C9
:100AD00002AFF8600B467A60FB7202F01BFE786191
:100AE000184B1B7883F00103DBB2002B20D0164B90
:100AF0001B6883F00103154A52F82330144A126828
:100B0000013A00930192002001210022114B02F0D2
:100B100081FF0C4B01221A700B4B1B680B4A52F8D9
:100B200023300120194640220B4B05F0CBFA02E09E
:100B30000A4B00221A70786902F0FCFD1837BD4696
:100B400080BD00BFB11800209C18002014000020B8
:100B5000A018002034C40040250A0000B21800206C
:100B600090B589B002AF0346B9607A60FB7397F91C
:100B70000F30002B48D1274B1B7883F00103DBB2E9
:100B8000002B3ED0244B1B6883F00103234A52F80C
:100B90002320234B1B68812011461A46214B05F068
:100BA000D5FB1F4B1B68204A13601A4B01221A7099
:100BB0001E4B01221A70184B1B68184A52F823402A
:100BC0001B4B00937E230193012001210022234629
:100BD00002F020FF124B00221A600A237B61154BA2
:100BE0001B684CF25032B2FBF3F33B613A697B690C
:100BF000934238BF1346012019460F4A08F088FD7A
:100C000002E00E4B00221A70002318461C37BD4626
:100C100090BD00BFB4180020A41800201C000020C4
:100C2000A8180020610B0000AC180020B0180020AC
:100C30001CC400400C0000205D0D0000B318002013
:100C400090B58BB002AFF8600B467A60FB7202F091
:100C500061FDF861354B1B6883F00103334A136073
:100C6000334B1B78002B03D0324B7F221A600AE0F3
:100C7000314B9A6943F6F07313401B09C3F17E03AD
:100C80001A462C4B1A602D4B1B7883F00103DBB204
:100C9000002B3ED0294B01221A70244B1B6883F095
:100CA0000103274A52F82320224B1B68812011465A
:100CB0001A46244B05F04AFB1E4B1B68224A136060
:100CC0001B4B01221A70194B1B681D4A52F8234016
:100CD0001E4B00937E230193012001210022234615
:100CE00002F098FE134B00221A600A23BB61184BD6
:100CF0001B684CF25032B2FBF3F37B617A69BB693B
:100D0000934238BF134601201946124A08F000FDED
:100D100005E0114B00221A70012008F097FDF869D8
:100D200002F008FD2437BD4690BD00BFA418002086
:100D3000B0180020A8180020003C0020B3180020A4
:100D40001C000020610B0000AC1800201CC40040F7
:100D50000C0000205D0D0000B418002080B584B0A8
:100D600000AF284B9B69FB60FB6803F00703002B77
:100D700000D144E0FA6843F6F07313401B09C3F155
:100D80007E03BB60BB68002B0FD11F4B1B68402B41
:100D90000BD11E4B0222DA621D4B00221A70012079
:100DA00001210022FFF74CFF29E0BB68002B10DD7A
:100DB000184B1B68BA689A420BD1144B0222DA62B4
:100DC000134B00221A70012001210022FFF738FF87
:100DD00015E0104ABB6813600A237B600E4B1B684A
:100DE0004CF25032B2FBF3F33B603A687B689342BB
:100DF00038BF134601201946084A08F089FC10370D
:100E0000BD4680BD003C0020AC18002000200C40F6
:100E1000B0180020A81800200C0000205D0D000074
:100E200080B586B000AF0346B9607A60FB730023DB
:100E30007B6197F90F30002B40F08680BB68072B51
:100E400040F08280434B9B79052B04D17B6943F0B2
:100E500002037B6126E03F4B9B79062B04D17B6923
:100E600043F003037B611DE03A4B9B79072B04D1D0
:100E70007B6943F004037B6114E0364B9B79082BBC
:100E800004D17B6943F005037B610BE0314B9B7917
:100E9000102B04D17B6943F00D037B6102E04FF01E
:100EA000FF3353E02B4B5B79002B22D0294B5B792E
:100EB000012B04D17B6943F440737B6119E0254B1E
:100EC0005B79022B04D17B6943F400737B6110E0F2
:100ED000204B5B79032B02D14FF0FF3336E01D4BE3
:100EE0005B79042B02D14FF0FF332FE04FF0FF333B
:100EF0002CE0184B1B79002B04D17B6943F4805301
:100F00007B6114E0134B1B79012B04D17B6943F403
:100F100000537B610BE00F4B1B79022B04D17B69E3
:100F200043F440537B6102E04FF0FF330EE00A4A86
:100F30007B695360074B1B68074800211A46002352
:100F400004F0D6F8002301E04FF0FF3318461837BD
:100F5000BD4680BD0C00002000C4004080B58CB0B0
:100F600000AF002387F82830294BFB6207F12803E4
:100F7000184602F025FE274B274A1A60254B00220F
:100F80005A6000233B7701237B77244B3B62214B44
:100F90007B6207F11C030020194602F06FFD03235A
:100FA0003B7200237B720023BB720023FB72002381
:100FB0003B7307F10803002001211A4602F0B8FD37
:100FC000174B184A1A60164B00225A6000233B74D4
:100FD00001237B744FF450237B61114BBB6107F1FC
:100FE00010030120194602F049FD00233B70032342
:100FF0007B700023BB700023FB7000233B713B46DA
:10100000012001211A4602F093FD3037BD4680BD14
:10101000003C0020B8180020CD0A000001000D009F
:10102000C4180020410C0000B0B586B000AF194BC9
:101030003C461D460FCD0FC495E8030084E803002D
:101040001548012101F04CFF032000210422012357
:1010500002F0D0FE032001210122002302F0CAFE8B
:101060000E48012101F03CFF0D48012101F038FF3D
:1010700000233B703B460B48194604F043F9094BEB
:1010800040F203125A650748052104F0FFF81837AB
:10109000BD46B0BD64C5000000D20400408104001C
:1010A0000012040000C4004080B582B000AF0346C7
:1010B0003960FB71FB79002B1FD0FB79012B19D014
:1010C000FB79022B13D0FB79032B0DD0FB79042B7A
:1010D00007D0FB79052B02D141F6FF730FE0002307
:1010E0000DE04FF6FF730AE04FF6FF7307E04FF68F
:1010F000FF7304E04FF6FF7301E04FF6FF733A68A9
:10110000134103F00103002B04D10B4840F29F313F
:1011100007F078FC0949FA793B68012000FA03F3EB
:1011200018461346DB0013449B000B441833186029
:101130000837BD4680BD00BF7CC500000060004090
:1011400080B582B000AF786039607B68002B06DB29
:101150007B68052B03DC144A7B68136003E0124BA9
:101160004FF0FF321A60114A3B681360104B0022A7
:101170001A70104B104A1A600B4B1B68B3F1FF3FFB
:101180000ED00E48012101F0ABFE074B1B68DAB20E
:10119000064B1B68104619460422002302F02AFE63
:1011A0000837BD4680BD00BF3C29002040290020F3
:1011B000442900204829002004C6000000D2040071
:1011C00080B582B000AF484B1B78DBB2072B50D004
:1011D000082B66D0062B00D072E0444B1B68DB68FE
:1011E000002B28D0414B1B68DB687B603F4B1B68A2
:1011F0001B693B603A687B68934228BF13463C4AB0
:101200001360394B00221A70384B1B685B78002B37
:1012100009D0364B1A68364B1B685B0A10463549B5
:101220001A4609F055FE324B1B6832481946324ABD
:1012300000F05EFD1CE0314B1A782B4B1A702A4BE4
:101240001B78DBB2032B07D100F034FD00F0EEFA7F
:10125000254B01221A700BE0234B1B78DBB2052BC8
:1012600006D1832004F0FEFF1F4B04221A7027E0F2
:1012700026E01E4B1A681E4B1B685B0A10461D4970
:101280001A4609F041FE194B1B68184A126891680A
:10129000174A1268520A0A449A60134B06221A70BF
:1012A0000EE0174B1B68DB7B1B2B01D109F0DEFD29
:1012B00000F000FD00F0BAFA0B4B01221A7000BFDB
:1012C000094B1B78DBB2012B04D0074B1B78DBB238
:1012D000002B01D1012300E0002303F00103DBB266
:1012E00018460837BD4680BD442900202C00002048
:1012F0004C290020201900206D1E000038290020F4
:101300002400002080B584B000AF78606FF0020345
:10131000FB607B681B7803F06003DBB2202B2BD1D2
:101320007B681B7823F07F03DBB2002B24D17B6822
:101330001B7803F01F03DBB2012B1DD17B685B78A8
:10134000FF2B19D17B685B889BB2002B14D17B6883
:101350009B889BB2012B0FD17B68DB889BB2002B53
:101360000AD14C4B1B78DBB2022B02D1494B002235
:101370001A700023FB6088E07B681B7803F0600331
:10138000DBB2202B2BD17B681B7823F07F03DBB2F1
:10139000002B24D07B681B7803F01F03DBB2012BEA
:1013A0001DD17B685B78FE2B19D17B685B889BB273
:1013B000002B14D17B689B889BB2012B0FD17B68DB
:1013C000DB889BB2012B0AD1334B00221A6000202C
:1013D00031490122002304F0B9FFF86055E07B6831
:1013E0001B7803F06003DBB2002B4ED17B681B78C7
:1013F00023F07F03DBB2002B47D17B681B7803F01F
:101400001F03DBB2022B40D17B685B78012B3CD100
:101410007B685B889BB2002B37D17B68DB889BB2F3
:10142000002B32D17B689B889BB2DBB2022B05D0AC
:101430007B689B889BB2DBB2832B26D10023FB60A9
:10144000144B1B78DBB2022B1FD07B689B889BB2AE
:10145000DBB2184604F040FFF8607B689B889BB2C3
:10146000DBB2832B0CD10B4B1B78DBB2042B0CD1E2
:1014700000F020FC00F0DAF9064B01221A7004E0BB
:1014800000F0D4F9034B01221A70FB68184610379C
:10149000BD4680BD442900205029002080B582B07F
:1014A00000AF03460A46FB711346BB71BB79052B9F
:1014B00008D100F0BBF90D4B01221A700C4B012230
:1014C0001A700FE0FB79052B06D1BB79062B03D0F0
:1014D000064B00221A7005E0BB79062B02D1034BA4
:1014E00000221A700837BD4680BD00BF4429002085
:1014F0003000002080B584B000AF0346B9607A6048
:10150000FB73A04B1B78DBB2012B40F0238197F9D2
:101510000F30002B40F01E81BB681F2B40F01A815A
:1015200000F070F90346002B00F0148100F036F94A
:101530000346002B00F00E81934B1B68B3F1FF3F75
:1015400008D0914B1B68DAB2904B1B6810461946C5
:10155000FFF7AAFD00F078F98D4B1B681B78002B74
:1015600004D08C4B1B6800221A7303E0894B1B6864
:1015700001221A73874B1B68002242F055021A7031
:10158000002242F053025A70002242F042029A7046
:10159000002242F05302DA707E4B1B687E4A1268CA
:1015A00052685A607B4B1B687B4A126892689A604B
:1015B000794B1B689B68002B27D0774B1B681B7BE4
:1015C000C3F3C013DBB21A46714B1B685B789A42B7
:1015D0001BD0704B1B6802221A736F4B1B681B7B5E
:1015E00023F07F03DBB2002B06D0832004F03AFE09
:1015F000644B04221A70ABE0022004F033FE00F0CA
:1016000059FB604B00221A70A2E0634B1B681B7BE6
:1016100023F07F03DBB2002B04D15F4B1B689B6878
:10162000002B62D15C4B1B689B68002B1ED1584B72
:101630001B68DB68002B03D0564B1B6802221A7311
:10164000534B1B68DB68002B08D1514B1B681B7D7B
:10165000012B03D14B4B08221A7045E000F02AFB06
:1016600000F0E4F8474B01221A703DE04A4B1B683A
:101670009A68474B1B68DB689A4209D1414B0322A9
:101680001A70434B1B68DB68184600F051FB2BE0D7
:10169000414B1B689A683E4B1B68DB689A4215D920
:1016A0003B4B1B68DB68002B09D0364B05221A70B8
:1016B000374B1B68DB68184600F03AFB14E08320C8
:1016C00004F0D0FD2F4B04221A7041E0314B1B680F
:1016D00002221A732B4B03221A702F4B1B689B6834
:1016E000184600F025FB33E032E02B4B1B689A686C
:1016F000274B1B68DB689A4209D1224B03221A70E0
:10170000234B1B68DB68184600F012FB20E0224BDD
:101710001B689A681E4B1B68DB689A420CD91D4BEC
:101720001B6801221A73022004F09CFD00F0C2FA2B
:10173000144B00221A700BE0164B1B6802221A731E
:10174000022004F08FFD00F0B5FA0E4B00221A7053
:10175000002312E097F90F30002B0DD104F064FA4A
:101760000346052B08D1022004F07CFD832004F001
:1017700079FD044B02221A70002318461037BD462B
:1017800080BD00BF442900203C29002040290020C2
:101790002C000020280000202400002080B400AF8E
:1017A000174B1B681B7B03F03F03DBB2002B21D1DF
:1017B000134B1B681B7B03F04003DBB2002B19D1DA
:1017C0000F4B1B685B7B23F00F03DBB2002B11D1A7
:1017D0000B4B1B685B7B03F00F03DBB2002B09D1C3
:1017E000074B1B689B7B23F01F03DBB2002B01D14F
:1017F000012300E000231846BD465DF8047B7047D6
:101800002400002080B400AF064B1B681B68064A0A
:1018100093420CBF01230023DBB21846BD465DF89E
:10182000047B7047240000205553424380B500AF2D
:10183000022003494022034B04F044FC80BD00BF5A
:10184000D0180020F514000090B597B000AFAD4B54
:101850001B6800221A70AB4B1B6800221A75A94B3B
:101860001B684FF400421A61A74B1B68DB7B2F2BD0
:1018700000F2FA8101A252F823F000BFAD1B000074
:10188000691C0000691C00009F190000691C000011
:10189000691C0000691C0000691C0000691C000034
:1018A000691C0000691C0000691C0000691C000024
:1018B000691C0000691C0000691C0000691C000014
:1018C000691C00003D190000691C0000691C000033
:1018D000691C0000691C0000691C0000691C0000F4
:1018E000691C0000691C0000D31B0000691C00007B
:1018F000691C0000691C0000691C0000691C0000D4
:10190000691C0000691C0000691C0000691C0000C3
:10191000151A0000691C0000691C0000791A0000FB
:10192000691C0000BF1A0000691C0000691C00004F
:10193000691C0000691C00001D1B0000724B1B6825
:101940000F337B657B6D5B7803F00103DBB2002B0B
:1019500024D17B6D9B78002B20D16A4B1B68012220
:101960001A70684B1B6801225A70664B1B68674AE5
:101970005A60644B1B6824223A657A6DB2F80320E2
:1019800092B2BA62BA6A52BA7A627A6AFA64F96C44
:101990003A6D8A4228BF0A46DA6065E164E15A4B33
:1019A0001B680F33BB64BB6C5B7803F00103DBB2D5
:1019B000002B2ED1BB6C5B7823F00103DBB2002B34
:1019C00027D1BB6C9B78002B23D1BB6CDB78002B21
:1019D0001FD14C4B1B6801221A704A4B1B68012215
:1019E0005A70484B1B684A4A12685A60454B1B683C
:1019F00012227A64BA6C127987F8432097F8431060
:101A00007A6C8A4228BF0A46DA60414B414A1A6022
:101A10002AE129E13C4B1B680F33FB63FB6B1B7A0C
:101A200003F00103DBB2002B25D1FB6BD3F80230AE
:101A3000002B20D109F02CFA0346013B3B623B6AA4
:101A40001BBA354A13604FF40073FB61FB691BBA84
:101A5000314A53602B4B1B6801221A70294B1B68BB
:101A600001225A70274B1B682B4A5A60254B1B6872
:101A70000822DA60F8E0F7E0234B1B680F33BB6302
:101A8000204B1B6801225A701E4B1C681D4B1968A5
:101A9000BB6BD3F80230BB61BB691ABABB6BB3F83E
:101AA00007309BB27B617B695BBA3B613B6908464F
:101AB00011461A4609F09AF903462370D4E0124BF6
:101AC0001B680F337B630F4B1B6800225A700D4B52
:101AD0001C680C4B19687B6BD3F80230FB60FB6809
:101AE0001ABA7B6BB3F807309BB2BB60BB685BBABA
:101AF0007B607B68084611461A4609F077F9034671
:101B00002370B1E02C00002024000020E0C500007C
:101B10004829002004C6000054290020604B1B689F
:101B20000F333B633B6B5B7803F00203DBB2002BAC
:101B30003BD13B6B5B7803F00C03DBB2002B34D161
:101B40003B6B5B7803F01003DBB2002B2DD13B6BBA
:101B50005B7823F01F03DBB2002B26D13B6B9B7914
:101B600003F01F03DBB2002B1FD13B6B9B7903F00B
:101B70006003DBB2002B18D13B6B9B7923F07F0312
:101B8000DBB2002B11D1474B1B6801221A70454B69
:101B90001B68434A1268127BC2F3C012D2B25A7059
:101BA000404B1B680022DA605EE05DE03D4B1B6845
:101BB0003D4A12781A703B4B1B68394A1268127BF7
:101BC000C2F3C012D2B25A70364B1B680022DA60E0
:101BD00062E0334B1B680F33FB62FB6A5B7823F0D8
:101BE0000103DBB2002B29D1FB6A9B78002B25D1A6
:101BF000FB6ADB7823F00F03DBB2002B1ED1FB6AFC
:101C00001B7903F00803DBB2002B17D1FB6A1B79A9
:101C100023F00F03DBB2002B10D1FB6A1B7903F01A
:101C20000203DBB2002B09D0FB6A1B7903F001032E
:101C3000DBB2002B02D11C4B00221A70194B1B681F
:101C400001221A70174B1B68154A1268127BC2F3E7
:101C5000C012D2B25A70134B1B680022DA60114BCB
:101C60001B6801221A7500BF0E4B1B681B7883F09E
:101C70000103DBB2002B0FD00A4B1B680022DA6095
:101C8000084B1B68064A1268127BC2F3C012D2B21C
:101C90005A70064B064A1A605C37BD4690BD00BFBD
:101CA000240000202C0000203000002048290020C3
:101CB00018C6000080B500AF0A4B1B68B3F1FF3FA8
:101CC00008D0084B1B68DAB2074B1B681046194650
:101CD000FFF7EAF9832005490D22002304F036FBC3
:101CE00080BD00BF3C2900204029002010190020A1
:101CF00080B584B000AFF860B9607A600B4B1B68A8
:101D00005B78002B07D0BB688320F9681A467B6894
:101D100004F01CFB06E0BB680220F9681A467B68E9
:101D200004F0D0F91037BD4680BD00BF2C00002064
:101D300080B584B000AF7860164B1B687A68DA60B3
:101D4000154B1B68154A126892689A60114B1B6804
:101D50001B7D012B08D1124B1B78DAB2114B1A7084
:101D60000F4B06221A7012E00A4B1B6859687B68F9
:101D7000FB60084B1B681B69BB60BA68FB68934239
:101D800028BF134608461946074AFFF7B1FF103728
:101D9000BD4680BD2C00002028000020240000202B
:101DA0004429002038290020AD1D000080B586B0F0
:101DB00000AF0346B9607A60FB73284B1B68274A63
:101DC0001268D168BA688A1ADA60254B1B68244AFF
:101DD00012689168BA688A1A9A60204B1B68DB689F
:101DE000002B1DD01D4B1B681C4A12685168BA6835
:101DF0000A445A60194B1B685968184B1B68DB680A
:101E00007B61164B1B681B693B613A697B69934296
:101E100028BF134608461946124AFFF769FF17E024
:101E2000114B1B78DBB2032B07D1FFF743FFFFF702
:101E3000FDFC0D4B01221A700AE00B4B1B78DBB244
:101E4000052B05D1832004F00DFA074B04221A70EC
:101E5000002318461837BD4680BD00BF2C00002067
:101E600028000020AD1D00004429002080B485B06A
:101E700000AF0346B9607A60FB73164B1B68154AC6
:101E80001268D168BA688A1ADA60134B1B68124A62
:101E900012689168BA688A1A9A600E4B1B685B7860
:101EA000002B0CD00B4B1B680A4A12689168BA6869
:101EB000520A0A449A60094B06221A7002E0074B44
:101EC00007221A70002318461437BD465DF8047BBC
:101ED000704700BF2C00002028000020442900206B
:101EE00080B483B000AF0346FB71FB79002B03D0B5
:101EF000054B01221A6602E0034B00221A660C37DA
:101F0000BD465DF8047B704700A0084080B483B0F4
:101F100000AF786000BF054B5A6E7B681340002B02
:101F2000F9D10C37BD465DF8047B704700A008402E
:101F300080B483B000AF78600549054B9A6A7B682E
:101F4000DB4313408B620C37BD465DF8047B704762
:101F500000A0084080B500AF00202849002202F010
:101F600077FD01202549002202F072FD022023495D
:101F7000002202F06DFD03202049002202F068FDDE
:101F800004201E49002202F063FD05201B490022A7
:101F900002F05EFD06201949002202F059FD0720DB
:101FA0001649002202F054FD0020FF21002202F019
:101FB0001BFE0120FF21002202F016FE0220FF215D
:101FC000002202F011FE0320FF21002202F00CFE8D
:101FD0000420FF21002202F007FE0520FF2100223D
:101FE00002F002FE0620FF21002202F0FDFD072084
:101FF000FF21002202F0F8FD80BD00BF00F00FF0CD
:1020000080B500AF07202649002202F021FD0620FE
:102010002449002202F01CFD05202249002202F082
:1020200017FD04201F49002202F012FD03201D4964
:10203000002202F00DFD02201A49002202F008FDE4
:1020400001201849002202F003FD00204FF020413A
:10205000002202F0FDFC07200721002202F0C4FD4F
:1020600006200721002202F0BFFD052007210022E3
:1020700002F0BAFD04200721002202F0B5FD032082
:102080000721002202F0B0FD02200721002202F009
:10209000ABFD01200721002202F0A6FD00BF80BD9C
:1020A00000E00F5000E00FF080B582B000AF0346B3
:1020B000FB712548012100F013FF2448032101F0A2
:1020C00023F92348402100F0A9FD012001F088FAFE
:1020D0002048012100F004FF4FF0FF30FFF728FFF8
:1020E0001D4802F025FB0820012102F087FB10208B
:1020F000012102F083FB8020012102F07FFB4FF4DD
:102100008070012102F07AFB4FF40070012102F08F
:1021100075FBFB79002B0DD04FF4402002F02AFE16
:102120004FF4803002F048FB0C4A0C4BDB6F43F05D
:102130000803D367FFF70EFF4FF0FF30FFF7E6FE0F
:102140000837BD4680BD00BF0043020002001A00F0
:102150006000260000362800E4C8000000800C4023
:1021600080B584B000AF03463960FB710023FB608B
:102170000023BB60FB79102B79D801A252F823F021
:10218000C5210000CF210000D9210000E32100007B
:10219000ED210000F7210000012200000B220000C9
:1021A000152200001F220000292200003322000017
:1021B0003D22000047220000512200005B22000067
:1021C000652200000123FB600C23BB604FE000236D
:1021D000FB602023BB604AE00323FB602723BB6036
:1021E00045E00223FB600C23BB6040E00023FB6062
:1021F0001C23BB603BE00323FB600C23BB6036E089
:102200000423FB600C23BB6031E00023FB601E2332
:10221000BB602CE00523FB602723BB6027E0002385
:10222000FB602223BB6022E00023FB602323BB6012
:102230001DE00723FB600C23BB6018E00523FB6057
:102240000C23BB6013E00623FB600C23BB600EE095
:102250000723FB601D23BB6009E00723FB601F23EE
:10226000BB6004E00423FB602723BB6000BF3B6826
:10227000002B05D0F868B968012202F0DFFA04E00B
:10228000F868B968002202F0D9FA1037BD4680BD5F
:1022900080B58AB000AF786078680AF00CF9034620
:1022A000BB6100233B624FF0FF30FFF72FFE0120A0
:1022B000FFF716FEFFF7A4FE00233B6246E03A6AF2
:1022C000BB699A4203DA7B681B787B6201E02023BA
:1022D0007B627B6A203B7B62214A7B6A32F8133047
:1022E000FB820023FB6128E01E493A6A1346DB00AB
:1022F0009B1A9B00CA18FB69134408339B793B6106
:1023000018493A6A1346DB009B1A9B00FA6913448A
:102310000B441B78FB60FA8AFB6942FA03F303F073
:102320000103002B06D0FA683B69104619460122CA
:1023300002F084FAFB690133FB61FB690D2BD3DDED
:102340007B6801337B603B6A01333B623B6A062B4F
:10235000B5DD0020FFF7C4FD2837BD4680BD00BFB6
:102360002CC800002CC6000080B487B000AF786095
:102370000B46FB701346BB70BB78002B04D01023B8
:10238000FB603E4B3B6103E00023FB603C4B3B6149
:102390007B685A6B3B691340BB6000237B61FB7811
:1023A000062B5BD801A252F823F000BFC92300001E
:1023B000E72300000B240000292400005D24000016
:1023C0005D2400004D2400002E4B5B6803F4FE43A7
:1023D0007A6913437B612B4B5B6803F07F037A6957
:1023E00013437B613DE0274B5B6803F0FE431B0E0C
:1023F0001B027A6913437B61224B5B6803F4FE0383
:102400001B0C7A6913437B612BE01E4B9B6803F422
:10241000FE437A6913437B611A4B9B6803F07F0389
:102420007A6913437B611CE0164B9B6803F0FE4303
:102430001B0E1B027A6913437B61124B9B6803F4EA
:10244000FE031B0C7A6913437B610AE00D4BDB68CA
:1024500003F07F037A6913437B6102E000237B6111
:1024600000BFFB687A699A40BB681A437B685A636D
:102470001C37BD465DF8047B704700BFFFFF8080BE
:102480008080FFFFB081E00F80B584B000AF78603E
:1024900039603B681B79FB727B682B4A934204D0FE
:1024A0002A484FF4BC7106F0ADFAFB7A002B06D136
:1024B0002748002100F0A8F80346FB721CE02448DE
:1024C000002100F0A1F803461A46FB7A934204D299
:1024D0001E484FF4C37106F095FA4FF4FA400021FC
:1024E00000F092F803461A46FB7A934204D9174843
:1024F00040F2871106F086FA7B680A225A603B6830
:102500001B781A063B68DB781B0403F4F8131A43A4
:10251000FB7A1B0203F4FE431A433B685B781B0102
:1025200013433A6892781343FB603B685B79002B56
:1025300003D0FB6843F00803FB607B68FA681A600D
:102540001037BD4680BD00BF00200040F8C8000025
:10255000405DC60080B584B000AF786039607B68AC
:10256000274A934204D0274840F2593106F04AFAEC
:102570007B6802225A603B689B7878681946002283
:10258000FFF7F2FE3B681B781A073B685B781B0578
:102590001A433B681B791B0213431A463B68DB78DE
:1025A0001B011343FB603B689B79002B03D0FB6846
:1025B00043F08073FB603B68DB79002B03D0FB6842
:1025C00043F00403FB603B685B79002B03D0FB689E
:1025D00043F00203FB603B681B7A002B03D0FB68CF
:1025E00043F00103FB603B689B781B041A46FB68C1
:1025F0001343FB607B68FA68DA601037BD4680BD24
:1026000000200040F8C8000080B584B000AF7860BA
:1026100039607B68134A934202D9124B7B6006E013
:102620007B68B3F5FA4F02D24FF4FA437B603B6804
:10263000002B03D10C4800F0C1FC38603A687B687D
:1026400013445A1E7B68B2FBF3F3FB60FB68002B5C
:1026500002D0FB68013BFB60FB68DBB21846103719
:10266000BD4680BD405DC6004081040080B582B09B
:1026700000AF78607B68002B08D1114800F09EFC09
:1026800078607B68002B01D101237B607B680D4A59
:10269000934201D90B4B7B607B6803F5742303F2F3
:1026A0003F237B607B68084AA2FB03239B0C7B6073
:1026B0007B68DBB2013BDBB218460837BD4680BD04
:1026C000408104000048E80183DE1B4380B487B0EA
:1026D00000AFF860B9607A60FB6803F10473DA0058
:1026E000BB6813449B007B617B697A681A601C3766
:1026F000BD465DF8047B704780B485B000AF78605C
:1027000039607B6803F10473DA003B6813449B0073
:10271000FB60FB681B6818461437BD465DF8047BF8
:10272000704700BF80B584B000AF78607B68002B35
:1027300003D07B68B3F5004F04D9084840F2966196
:1027400006F060F97B68B3FA83F3C3F11F03FB6003
:10275000FB6818461037BD4680BD00BF0CC900009D
:1027600080B400AF044BDB6C1B0EDBB21846BD46D9
:102770005DF8047B704700BFB081E00F80B400AF0C
:10278000054BDB6C03F47F031B0CDBB21846BD4624
:102790005DF8047B704700BFB081E00F80B582B068
:1027A00000AFFFF7EBFF03464A2B04D0792B02D092
:1027B000482B21D022E0164B1B699BB203F03F034C
:1027C0009BB21B02FB80124B9B6903F0F0039AB291
:1027D000FB881343FB800E4BDB6903F0F0031B09FE
:1027E0009AB2FB881343FB80FB88B3F5017F01D3CA
:1027F000084B09E0084B07E0074B05E007484FF49A
:10280000877106F0FFF8002318460837BD4680BDE3
:10281000D0FF0FE000366E010048E80170C90000EB
:1028200080B584B000AF78600123FB60FFF7B6FF8E
:1028300002467B689A4204D30023FB600023BB60FE
:102840000BE0FFF7ABFF03465A007B689A4202D3C6
:102850000123BB6001E00223BB6008481E21FA6827
:10286000FFF734FF0549054B5B6823F48072BB68B2
:102870001B0213434B601037BD4680BD00800C40E7
:1028800080B582B000AF05481E21FFF735FF7860A4
:102890007B6818460837BD4680BD00BF00800C40ED
:1028A00080B582B000AF244B5B6903F4E063B3F5FD
:1028B000007F1CD0B3F5007F05D8002B25D0B3F5E1
:1028C000807F1FD02AE0B3F5C06F24D0B3F5E06F4E
:1028D0001ED0B3F5407F21D1FFF742FF0346122BF4
:1028E00002D9164B7B6021E0154B7B601EE0FFF7A1
:1028F00037FF0346122B02D9124B7B6016E0124BB6
:102900007B6013E0114B7B6010E0114B7B600DE0AE
:10291000104B7B600AE0104B7B6007E00F484FF4E0
:10292000C67106F06FF800237B6000BF7B68184615
:102930000837BD4680BD00BF00800C40804F1200AC
:1029400040420F0040B56400C0CF6A00C0D8A70065
:10295000809FD500406F4001003FAB0170C900006F
:1029600080B582B000AF0F4800F01AFC0346FB7040
:10297000FB78072B05D0092B07D1FDF795FE786072
:102980000BE0FFF78DFF786007E007484FF4E37135
:1029900006F038F800237B6000BF7B6818460837D4
:1029A000BD4680BD06000C0070C9000080B485B033
:1029B00000AF78603960284BDB6B002B14BF01231C
:1029C0000023BB72244B41F67132DA63224B5B6801
:1029D00003F00703FB60FB68012B01D9042B02D134
:1029E0000023FB7202E00123FB7200BF7B681B4ADD
:1029F000934207D9FB7A002B01D0052300E0042382
:102A0000FB6016E07B68154A93420BD87B68144A3A
:102A1000934207D9FB7A002B01D0032300E0012366
:102A2000FB6006E0FB7A002B01D0022300E00023CC
:102A3000FB600949084B5B6823F00702FB681343FE
:102A40004B60BB7A002B02D0034B0022DA631437B1
:102A5000BD465DF8047B704700000C400048E8016B
:102A60000024F40080B500AFFDF714FE03461846BD
:102A70000021FFF79BFF80BD80B582B000AF78607A
:102A8000396078683968FFF791FF0837BD4680BD27
:102A900090B585B000AF78600023BB607B683B4A8F
:102AA000934208D03A4A934205D03A4840F2B531B1
:102AB00005F0A8FF00E000BF786800F071FB034656
:102AC000FB607B68314A934203D0314A934206D07F
:102AD0000CE0314B9B6A03F00303FB600CE02E4BD0
:102AE0009B6A03F00C039B08FB6005E029484FF448
:102AF000797105F087FF00BFFB68032B39D801A26D
:102B000052F823F03B2B0000152B00001D2B00007A
:102B1000252B0000FDF75AFEB86032E0FDF76AFE93
:102B2000B8602EE0FDF79CFD0446FFF7A9FE0346C2
:102B3000013324FA03F3BB6023E00023BB607B680E
:102B4000124A934203D07B68114A934210D1124B30
:102B50009A6A7B680D498B4201D1102300E014234F
:102B600022FA03F3002B03D0FDF73AFEB86008E029
:102B700007E0084840F20E4105F044FF0023BB6027
:102B800000BFBB6818461437BD4690BD02001A004E
:102B900003001C0070C9000000800C4080B483B0AA
:102BA00000AF7860094B5B6D03F00103002B00D090
:102BB00006E000BF054B1A6D7B681340002BF9D16E
:102BC0000C37BD465DF8047B704700BF00800C40A9
:102BD00080B582B000AF104800F0E2FA0346FB7007
:102BE000FB78032B07D0092B09D0022B0BD1FDF763
:102BF00001FE78600AE0FDF7E9FD786006E0FDF788
:102C000053FD786002E000237B6000BF7B681846BC
:102C10000837BD4680BD00BF07232200B0B584B091
:102C200000AF786039607B681B0903F00F03FB601D
:102C3000FB68013B062B00F23A8101A252F823F017
:102C40005D2C0000AF2E0000AF2E00009B2C00007A
:102C5000CD2C0000232D00002F2E00003B68002B00
:102C600002D03B68082B04D9954840F2BD6105F0BD
:102C7000C9FEFFF7F7FE9349924B1B6823F4E0323D
:102C80003B68013B9B0313430B60FDF7E9FCB86015
:102C9000B8680021FFF7F0FE0FE13B68002B03D07E
:102CA0003B68B3F5007F04D985484FF4DA6105F03D
:102CB000A9FE3868FFF736FD38608249814B9B6872
:102CC00023F00F023B6813438B60F6E03B68002B58
:102CD00003D03B68B3F5007F04D979484FF4DB613A
:102CE00005F090FEFFF7BEFEFDF7DEFC02463B68F6
:102CF000B2FBF3F31846FFF793FD3868FFF712FDB8
:102D0000386070496F4B5B6823F00F023B681343D8
:102D10004B60FDF7A5FCB860B8680021FFF7ACFE7A
:102D2000CBE07B68684A934227D0674A934203D836
:102D3000664A934207D073E0654A934237D0654AAA
:102D4000934255D06CE03B68B3F5004F04D95C4822
:102D500040F2F36105F056FE0420FFF71FFF3868CC
:102D6000FFF7E0FC38605749564B9B6E23F0F002AA
:102D70003B681B0113438B6658E03B68B3F5004F7B
:102D800004D94F4840F2017105F03CFE0420FFF7E2
:102D900005FF3868FFF7C6FC38604A49494B9B6E0F
:102DA00023F470623B681B0213438B663EE03B6872
:102DB0000F2B02D93B68802B04D941484FF4E261C4
:102DC00005F020FE0420FFF7E9FE3868FFF7AAFCB3
:102DD00038603C4D3B4B9B6E23F440541020FFF772
:102DE000A1FC02463B689B1A1B032343AB661DE014
:102DF0003B68082B04D932484FF4E46105F002FE29
:102E00000420FFF7CBFE3868FFF78CFC38602D49B3
:102E10002C4B9B6E23F003023B6813438B6605E04B
:102E2000274840F22E7105F0EDFD00BF45E07B68BC
:102E3000294A934203D0294A934218D030E03B6894
:102E4000082B04D91E4840F2377105F0DBFD402005
:102E5000FFF7A4FE3868FFF765FC38601949194B85
:102E60001B6F23F003023B6813430B671EE03B68B4
:102E7000082B04D9124840F2467105F0C3FD4020EA
:102E8000FFF78CFE3868FFF74DFC38600D490D4B9D
:102E90001B6F23F030023B681B0113430B6705E0F7
:102EA000074840F2547105F0ADFD00BF05E004484D
:102EB00040F25A7105F0A6FD00BF1037BD46B0BD07
:102EC00070C9000000800C406026140060161000DD
:102ED0006000260060062A007007160070171800B0
:102EE00080B586B000AF78600B46FB7000233B6175
:102EF0007B681B0A03F00F03013B092B33D801A2A7
:102F000052F823F0412F0000472F00002D2F000022
:102F1000672F0000672F00004D2F0000572F000083
:102F2000672F0000672F0000612F00001B4B7B61A3
:102F30001B4800F043F803461846FFF771FC18E001
:102F4000184B7B6115E0184B7B6112E0174B7B61DE
:102F500001233B610DE0164B7B6110233B6108E0D0
:102F6000144B7B6105E014484FF4FB6105F04AFD0A
:102F700010E07B681B0B03F01F03FB603B69002B19
:102F800002D03869FFF70AFEFB787869F9681A46BB
:102F9000FFF79CFB1837BD4680BD00BF40800C404A
:102FA0000043020008800C4044800C4058800C40D4
:102FB00060800C4078800C4070C9000090B585B0EE
:102FC00000AF78607B6803F47813B3F5B01F00F0AE
:102FD000AB80B3F5B01F1AD8B3F5402F00F0BF8017
:102FE000B3F5402F08D8B3F5003F3CD0B3F5802FA0
:102FF0002DD0002B27D0BEE0B3F5801F3CD0B3F519
:10300000A01F47D0B3F5602F00F0AD80B3E0B3F55B
:10301000081F00F0AC80B3F5081F0AD8B3F5D01F25
:1030200025D0B3F5E01F7AD0B3F5C01F00F089803A
:10303000A1E0B3F5201F4ED0B3F5281F62D0B3F541
:10304000181F35D097E0FDF72FFBF8609BE0FDF7E8
:103050002BFBF8604E4B9B6803F00F031A46FB688E
:10306000D340FB608FE0FDF7FBFAF8608BE0494846
:10307000FFF70EFDF86086E04648FFF709FDF860AF
:10308000434B9B6E03F0F0031B091A46FB68D340C9
:10309000FB6078E03F48FFF7FBFCF8603C4B9B6E21
:1030A00003F470631B0A1A46FB68D340FB606AE0B6
:1030B0003848FFF7EDFCF860354B9B6E03F4405346
:1030C0001C0B1020FFF72EFB034623441A46FB6817
:1030D000D340FB6057E02F48FFF7DAFCF8602C4B39
:1030E0009B6E03F440531B0B1A46FB68D340FB60F6
:1030F000274BDB6F03F007030133FA68B2FBF3F3EE
:10310000FB6040E02348FFF7C3FCF860204B9B6E58
:1031100003F003031A46FB68D340FB6033E01E480C
:10312000FFF7B6FCF8602EE01B48FFF7B1FCF86033
:10313000174B1B6F03F003031A46FB68D340FB6079
:1031400021E01548FFF7A4FCF860114B1B6F03F05A
:1031500030031B091A46FB68D340FB6013E0FFF7FE
:10316000FFFBF8600FE0FFF79BFBF8600BE0FFF759
:103170002FFDF86007E0094840F6CC0105F042FC5D
:103180000023FB6000BFFB6818461437BD4690BDA6
:1031900000800C4002001A0003001C0070C90000EF
:1031A00080B584B000AF78600123FB737B6803F0C7
:1031B0000F03BB60BB68013B062B00F2938001A2AA
:1031C00052F823F0E13100001732000053320000C2
:1031D000E5320000E53200008F320000B13200001D
:1031E000474BDB6A03F47053B3F5805F09D0B3F546
:1031F000005F03D0B3F5006F06D008E00223FB7335
:1032000008E00323FB7305E00423FB7302E00523BE
:10321000FB7300BF6EE03A4B9B6A03F00303022B83
:1032200006D0032B07D0012B08D10323FB730FE03B
:103230000223FB730CE00623FB7309E0304B9B6A0F
:1032400003F48033002B02D00A23FB7300E000BF9D
:1032500050E02B4B9B6A03F00C03082B06D00C2B81
:1032600007D0042B08D10323FB730FE00223FB7369
:103270000CE00623FB7309E0214B9B6A03F48013E7
:10328000002B02D00A23FB7300E000BF32E01C4B8E
:103290001B6803F08053002B03D0B3F1805F03D091
:1032A00028E00723FB7302E00923FB7300BF21E042
:1032B000134BDB6A03F46033B3F5803F08D0B3F5FA
:1032C000003F08D0B3F5004F08D10923FB7308E095
:1032D0000223FB7305E00323FB7302E00123FB736E
:1032E00000BF07E007484FF4476105F08BFB002360
:1032F000FB7300BFFB7B18461037BD4680BD00BF87
:1033000000800C4070C9000080B588B000AF7860C4
:103310000B46FB700323FB610323FB7600233B6119
:103320007B6803F00F03FB60FB68013B062B00F298
:10333000438101A252F823F05533000043340000CA
:1033400043340000B9350000B935000011350000E4
:1033500047350000FB78023B082B52D801A252F8F7
:1033600023F000BF89330000933300009D33000039
:10337000DF33000003340000033400000334000096
:1033800003340000F73300000423FB610023FB76C5
:103390003DE00323FB610123FB7638E00223FB6160
:1033A0000223FB76FFF7FAF9034601331846FFF7CD
:1033B00037FAFDF7F9F90246844B9A4206D9844A56
:1033C000834B1B6843F06003136020E0804A804B0E
:1033D0001B6823F0600343F02003136017E0012310
:1033E000FB610323FB76FFF7D9F903460133184647
:1033F000FFF716FA0BE0774840F6145105F002FB90
:10340000E0E0744840F6195105F0FCFADAE0FB7E82
:1034100018460121012200F009F9FFF723FB6C4A4D
:10342000FB6953626C48FFF7C9FD03461846FFF776
:10343000F7F9FDF715F9B860B8680021FFF71CFB34
:10344000C0E0FB78013B092B3CD801A252F823F0E5
:10345000793400007F3400008F340000C534000050
:10346000C53400009F340000C5340000C53400009E
:10347000C5340000BB34000000237B6128E000203D
:103480000121012200F0D2F802237B6120E001201B
:103490000121012200F0CAF801237B6118E0FDF749
:1034A000DFF8B860B868FFF7BBF94C480421012287
:1034B000FFF70CF903237B610AE000237B61012302
:1034C0003B6105E0434840F6B85105F09BFA79E0CE
:1034D000FB68022B0DD13E493D4B9B6A23F48033A0
:1034E00023F003037A691A433B691B0413438B627D
:1034F00068E03749364B9B6A23F4801323F00C03B2
:103500007A6992001A433B691B0513438B6259E0A9
:10351000FB78072B02D0092B07D00DE02C4A2C4B4F
:103520001B6823F0805313600CE0294A284B1B686A
:1035300043F08053136005E0264840F6136105F020
:1035400061FA3FE03EE0FB78032B13D0092B21D03A
:10355000022B2AD100200121012200F067F81C4B28
:1035600040225A6200BF1A4BDB6A03F48033002BFF
:10357000F9D020E001200121012200F057F8144B7E
:1035800060225A6200BF124BDB6A03F40033002B47
:10359000F9D010E00E4B20225A6200BF0C4BDB6AC0
:1035A00003F40043002BF9D005E00A4840F65261CD
:1035B00005F028FA06E005E0064840F6277105F018
:1035C00021FA00BF2037BD4680BD00BF0048E8019A
:1035D00000800C4070C900000043020040800C4095
:1035E00080B582B000AF78607B68802B04D90D482D
:1035F00041F2232105F006FA0B4B9B6D03F0080303
:10360000002B00D00BE07B6803F007037B600649CA
:10361000054BDB6F23F007027B681343CB6708374A
:10362000BD4680BD70C9000000800C4080B586B0EA
:1036300000AF0346FB710B46BB7113467B71FB79F0
:10364000042B32D801A252F823F000BF99360000B3
:103650008B3600006F360000613600007D360000BA
:1036600001233B610223FB6001237B6123E00423F0
:103670003B610823FB6003237B611CE010233B615B
:103680002023FB6005237B6115E040233B61802301
:10369000FB6007237B610EE04FF480733B614FF4C6
:1036A0000073FB6009237B6105E00F4841F2CC21E8
:1036B00005F0A8F914E0BB79002B0ED00B4A3B694A
:1036C00013627B79002B0BD000BF09487969FFF7A3
:1036D00013F80346002BF8D002E0044AFB6813629B
:1036E0001837BD4680BD00BF70C9000000800C4087
:1036F0002C800C4080B400AF72B6BD465DF8047BF0
:10370000704700BF80B400AF62B6BD465DF8047B71
:10371000704700BF80B483B000AFEFF310833B600D
:103720003B687B6072B67B6818460C37BD465DF817
:10373000047B704780B483B000AF78607B68002B57
:1037400000D162B60C37BD465DF8047B704700BF00
:1037500080B483B000AF0346FB71084997F9073086
:103760005B09FA7902F01F02012000FA02F241F827
:1037700023200C37BD465DF8047B704700E100E074
:1037800080B483B000AF0346FB71094997F9073055
:103790005B09FA7902F01F02012000FA02F22033DD
:1037A00041F823200C37BD465DF8047B704700BF0D
:1037B00000E100E080B483B000AF0346FB7109492B
:1037C00097F907305B09FA7902F01F02012000FA2D
:1037D00002F2603341F823200C37BD465DF8047BCC
:1037E000704700BF00E100E080B487B000AFF86030
:1037F000B9607A60FB6803F10473DA00BB681344B4
:103800009B007B617B697A681A601C37BD465DF856
:10381000047B704780B489B000AF786008461146D9
:103820001A460346FB700B46BB7013467B707B68E1
:103830001A013C4B9B681344BB61BB78002B02D040
:10384000BB69FB6105E07B681A01364BDB681344FA
:10385000FB61BB69DB687B617B69002B02D0BA78B6
:103860007B691A72FB6A002B14D0FB699B6803F01A
:1038700040639B0E3B613B69032B03D1FB69FA6AF2
:103880001A6007E03B693A6B9A40FB6A13441A4698
:10389000FB691A60BB6A002B12D0FB699B689B0F07
:1038A0003B613B69032B03D1FB69BA6A5A6007E0AD
:1038B0003B693A6B9A40BB6A13441A46FB695A60EB
:1038C0007B68012202FA03F3FB607B78002B03D0B4
:1038D000144AFB68936102E0124AFB68D361BB782B
:1038E000002B03D00F4AFB68536302E00D4AFB68CC
:1038F0001363FB699B6823F47F5323F03703BB609A
:103900003B6B1B01BA681343BB60FB78BA68134377
:10391000BB60FB69BA689A602437BD465DF8047BDA
:10392000704700BF00200C4080B58AB000AF374B15
:1039300003F580531B68BB61344B03F580530C3394
:103940001B68BA691340BB61BB69002B04DA3048BD
:1039500040F2191105F056F82C4B9B6B7B61BA694C
:103960007B6913403B620023FB6149E000237B62DB
:103970003BE03B6A03F00103002B30D0234B9B68F4
:103980003B6101227B6A02FA03F3FB601F4B03F5E4
:1039900080530833FA681A607B6A1B013A69134442
:1039A000DB68BB60BB68002B19D0BB681B7A7B60EF
:1039B000BB681B7A83F00103DAB2BB681A72BB687A
:1039C0001B68002B0BD0BB681B68786A7A68002ADA
:1039D00014BF01220022D1B2BA68526898473B6AEC
:1039E0005B083B627B6A01337B623B6A002BC0D180
:1039F0007B69DA43BB6913403B62FB690133FB61BE
:103A0000FB69012BB2DD2837BD4680BD00200C408C
:103A100084C9000090B589B004AFF8607B600B46A4
:103A2000FB721346BB72FB680B2B04D9114840F2A2
:103A3000AF1104F0E7FF7B6AB3F5806F04D30D4844
:103A40004FF4D87104F0DEFFFA7ABC7A7B680093F9
:103A50003B6A01937B6A0293F86801212346FFF7D2
:103A6000D9FE054AFB68012101FA03F3936214377A
:103A7000BD4690BD84C9000000200C4080B584B0D4
:103A800000AF786039607B680B2B04D925484FF470
:103A9000287104F0B7FF3B68002B04D1214840F2A5
:103AA000A12104F0AFFF204B9B68FB607B681B01EA
:103AB000FA6813443A689268DA603B681B78002B16
:103AC00006D0194A7B68012101FA03F3936305E0EC
:103AD000154A7B68012101FA03F3D36312493B685D
:103AE0005A687B6803F5886341F823203B685B785C
:103AF000002B0FD00C4A7B68012101FA03F3194611
:103B000002F5805308331960084879680122FFF7ED
:103B10006BFE04E0054879680022FFF765FE103768
:103B2000BD4680BD84C9000000200C400C300C4014
:103B300080B586B000AFF8600B467A60FB72FB6818
:103B40000B2B04D91C4840F2E62104F05BFF7B6894
:103B5000002B04D1184840F2E72104F053FFFB7A10
:103B6000002B03D0154B9B687B6102E0134BDB6895
:103B70007B61FB681B017A6913447B617B681B785E
:103B80009A077B689B781B071A437B685B789B06C8
:103B90001A437B689B781B0613431A467B681B7984
:103BA0009B0413437A68D27892031A437B699A6024
:103BB0001837BD4680BD00BF84C9000000200C40FE
:103BC00080B582B000AF78607B68002B04D11848C4
:103BD00040F2E13104F016FF7B685B68DBB2002B3A
:103BE00004D0134840F2E73104F00CFF11480121E2
:103BF000FFF776F900F022F80020FFF7DBFD002048
:103C0000FFF7A6FD0C4B03F580530C334FF0004239
:103C10001A60094A7B685B689360074A7B681B7877
:103C20005B0143F0010353600837BD4680BD00BF10
:103C300084C900000003020000200C4080B582B05F
:103C400000AF0020FFF79CFD1C4B00225A601B4B6D
:103C500040F6FF72DA61194B40F6FF725A62174B59
:103C600040F6FF72DA62154B40F6FF725A63134B4F
:103C700040F6FF72DA63114B0122DA640F4B03F551
:103C800080530C3300221A600C4B03F58053083329
:103C90000B4A1A6000237B6009E0084A7B6803F541
:103CA0008863002142F823107B6801337B607B68C6
:103CB0000B2BF2DD0837BD4680BD00BF00200C4055
:103CC000FF0F008080B582B000AF03463960FB7102
:103CD000FB79002B1FD0FB79012B19D0FB79022B2C
:103CE00013D0FB79032B0DD0FB79042B07D0FB7984
:103CF000052B02D141F6FF730FE000230DE04FF6D4
:103D0000FF730AE04FF6FF7307E04FF6FF7304E01E
:103D10004FF6FF7301E04FF6FF733A68134103F06B
:103D20000103002B04D10B4840F2593104F06AFE24
:103D30000949FA793B68012000FA03F31846134653
:103D4000DB0013449B000B44103358600837BD461A
:103D500080BD00BF98C900000060004080B582B0FF
:103D600000AF03463960FB71FB79002B1FD0FB7954
:103D7000012B19D0FB79022B13D0FB79032B0DD02B
:103D8000FB79042B07D0FB79052B02D141F6FF7399
:103D90000FE000230DE04FF6FF730AE04FF6FF73CC
:103DA00007E04FF6FF7304E04FF6FF7301E04FF6B4
:103DB000FF733A68134103F00103002B04D10B4851
:103DC00040F2863104F01EFE0949FA793B68012071
:103DD00000FA03F318461346DB0013449B000B4420
:103DE000103318600837BD4680BD00BF98C9000079
:103DF0000060004090B585B000AFB9607B600346BD
:103E0000FB731346BB73FB7B002B1FD0FB7B012B8B
:103E100019D0FB7B022B13D0FB7B032B0DD0FB7B3C
:103E2000042B07D0FB7B052B02D141F6FF730FE07B
:103E300000230DE04FF6FF730AE04FF6FF7307E033
:103E40004FF6FF7304E04FF6FF7301E04FF6FF7388
:103E5000BA68134103F00103002B04D137484FF433
:103E6000857104F0CFFDBB7B002B0DD07B68002B50
:103E700005D0FB7B1846B968FFF770FF04E0FB7BB9
:103E80001846B968FFF71EFFBB68072B1CD82C4CDF
:103E9000FA7B2B48F97B0B46DB000B449B00034469
:103EA0005968BB689B0018460F238340DB430B40D7
:103EB000B97BB8688000814019431346DB00134486
:103EC0009B002344596024E01D4CFA7B1C48F97B7D
:103ED0000B46DB000B449B00034408331968BB68A6
:103EE00003F18043083B9B0018460F238340DB43CC
:103EF0001940B87BBB6803F18043083B9B0000FA84
:103F000003F319431346DB0013449B002344083397
:103F10001960BB7B002B0DD17B68002B05D0FB7B90
:103F20001846B968FFF71AFF04E0FB7B1846B9682A
:103F3000FFF7C8FE1437BD4690BD00BFFCC90000A6
:103F40000060004080B487B000AFF860B9607A606C
:103F5000FB6803F10473DA00BB6813449B007B61C8
:103F60007B697A681A601C37BD465DF8047B704730
:103F700080B485B000AFF860B9607A60FB681A68F9
:103F8000BB68DB431A407B681A43FB681A6014372E
:103F9000BD465DF8047B704780B588B000AFF8601F
:103FA000B9607A60FB707B68002B03D14148EC213B
:103FB00004F028FD7B68002B00D178E0FB681B68CB
:103FC00023F44072FB681A60FA68FB781B02104603
:103FD0004FF440711A46FFF7CBFFBB68002B03D1AB
:103FE0003548FEF7EBFFB8604FF0FF33FB61FB682D
:103FF0001B6803F00203002B11D0FB78012B07D0C4
:10400000022B08D0002B00D019E02C4BFB6105E0FF
:104010002B4BFB6102E02B4BFB6100BF0FE0FB78F9
:10402000012B06D0022B07D0002B08D1264BFB61B9
:1040300005E0264BFB6102E0254BFB6100BFBA683F
:10404000FB699A4204D81B4840F2271104F0DAFCBD
:10405000FB78204AD35C7B617B689B00BA68D21AEC
:104060007B69796801FB03F3B2FBF3F3013BBB61AE
:10407000BB69002B04DA0F4840F2351104F0C2FC92
:10408000BB69B3F5007F04D30A484FF49B7104F079
:10409000B9FCFB681B6803F00203002B04D0BB696A
:1040A000002B01D10123BB61BA69FB681A6120377B
:1040B000BD4680BD14CA0000408104004016400087
:1040C000C0D8A7008050740180841E00405489002D
:1040D000002D310110CA000080B582B000AF7860B9
:1040E00039607B68194A934208D07B68184A93422A
:1040F00004D0184840F2631104F084FC7B6800226D
:104100005A637B68144A1A637A683B685B78002BB1
:1041100001D0002300E00123104601211A46FFF7D9
:1041200011FF3B6859683B689A683B681B7B78685D
:10413000FFF732FF7A683B681B78104600211A4669
:10414000FFF700FF0837BD4680BD00BF00A000405C
:1041500000A4004014CA0000CFFF010080B588B061
:1041600000AF78607B689F4A934208D07B689E4A84
:10417000934204D09D4840F2B31104F043FC7B68A5
:10418000984A934202D19A4BBB6108E07B68964AF9
:10419000934202D1974BBB6101E0FC230CE2BB6967
:1041A0009B687B617B689B6A3B613B6903F4C063EE
:1041B000002B14D03B6903F40073002B03D0BB69C0
:1041C000FD225A7007E03B6903F48063002B02D0A4
:1041D000BB69FE225A70BB6909221A70D8E1BB691B
:1041E0001B78082B00F2CC8101A252F823F000BF0B
:1041F0001542000067420000ED4200003F4300000E
:1042000091430000F943000081440000BF440000D6
:10421000514500007B695B8803F01003002B09D037
:104220007B691B881B0A9BB203F0060343F0F00373
:10423000FB610EE07B691B8803F0FE03FB617B6979
:104240005B8803F00203002B03D0FB6943F00103FA
:10425000FB61BB6901221A707B68FA695A627B684C
:1042600001225A6094E13B6903F08003002B0CD0DB
:104270007B6880221A63BB69FF225A70BB690822DF
:104280001A707B6802225A602FE03B6903F04003FA
:10429000002B2AD07B6840221A637B695B8803F07D
:1042A0001003002B08D0BB6902221A707B691B889F
:1042B000DAB27B685A6218E07B695B8803F002031C
:1042C000002B0ED0BB6907221A70BB691B797A6973
:1042D000DB0013441B89012B07D17B6808225A603D
:1042E00056E1BB6905221A7051E151E13B6903F0C7
:1042F0008003002B0CD07B6880221A63BB69FF22ED
:104300005A70BB6908221A707B6802225A6015E055
:104310003B6903F04003002B10D07B6840221A63F6
:104320007B695B8803F00203002B03D0BB69032287
:104330001A702CE1BB6905221A7028E128E17B691B
:104340005B8803F01003002B09D07B691B881B0AD4
:104350009BB203F0060343F0F003FB6104E07B69CA
:104360001B8803F0FE03FB617B695B8803F0040399
:10437000002B03D0FB6943F00103FB61BB690422FE
:104380001A707B6801225A607B68FA695A62FFE002
:104390003B6903F08003002B0CD07B6880221A63FA
:1043A000BB69FF225A70BB6908221A707B6802221F
:1043B0005A6015E03B6903F04003002B10D07B6886
:1043C00040221A637B695B8803F00403002B03D04F
:1043D000BB6907221A7003E0BB6905221A70D6E098
:1043E000D6E000BF00A0004000A4004014CA0000B6
:1043F0005C29002068290020BB695A88BB691B79A9
:104400007969DB000B441B899A4224D3BB690022E3
:104410005A80BB691B790133DAB2BB691A717B69B7
:104420005B8803F00403002B03D0BB6903221A70DE
:10443000ADE07B695B8803F00103002B03D1BB690E
:104440001B79012B06D9BB6908221A707B680222EE
:104450005A609DE09BE0BB691B797A69DB001344DD
:104460005A68BB695B88591C88B2B9694880134493
:104470001B781A467B685A62BB6906221A7087E06D
:104480003B6903F08003002B0CD07B6880221A6309
:10449000BB69FF225A70BB6908221A707B6802222E
:1044A0005A600BE03B6903F04003002B06D07B68A9
:1044B00040221A63BB6905221A7068E068E03B6914
:1044C00003F02003002B42D0BB691B797A69DB0023
:1044D00013441B89FB607B68DB69FB72BB695B88EB
:1044E0001A46FB689A420ED2BB691B797A69DB00D7
:1044F00013445A68BB695B88591C88B2B969488003
:104500001344FA7A1A70BB695B881A46FB689A42B0
:104510000CD3FB68012B02D17B6808225A60BB696F
:1045200008221A707B6802225A6010E07B6804221D
:104530005A60FB68012B0AD9BB695B881A46FB6885
:10454000013B9A4203D17B6808225A6020E01FE0B9
:104550007B684FF480721A631A4B02225A60BB695F
:1045600009221A703B6903F48073002B07D07B6823
:104570004FF480721A63BB6909221A7008E007E0E1
:10458000BB69FB225A70BB6909221A7000E009E678
:10459000BB691B78092B0BD17B6800225A63BB696E
:1045A0005B785BB2012B05D1BB6900225A7001E038
:1045B000012301E0BB695B785BB218462037BD463A
:1045C00080BD00BF00A4004080B584B000AF78601B
:1045D00039607B68374A934208D07B68364A9342F9
:1045E00004D0364840F22F3104F00CFA3B68002B1F
:1045F00004D132484FF44C7104F004FA7B682D4A20
:10460000934202D12E4BFB6008E07B682A4A93421A
:1046100002D12C4BFB6001E0FC2345E07B689B68EA
:1046200003F00103002B02D07B6820225A603B6814
:104630005B8803F00203002B03D03B681B89002B2F
:1046400009D03B685B8803F00403002B05D03B686E
:104650001B8A002B01D1FC2326E0FB6800221A7084
:10466000FB6801225A70FB6800225A80FB68002216
:104670001A71FB683A689A607B68C0225A607B684E
:104680009B6A03F02003002B01D07B68DB697B6809
:104690000D4A1A637B685B6B43F4FC627B685A6368
:1046A0007868FFF75BFD03465BB218461037BD46DE
:1046B00080BD00BF00A0004000A4004014CA00005C
:1046C0005C29002068290020CFFF010080B483B05E
:1046D00000AF0346FB71FB79002B06D0084A084B5C
:1046E0001B6843F00103136005E0054A044B1B6897
:1046F00023F0010313600C37BD465DF8047B70475F
:1047000000A0084080B487B000AFF860B9607A605C
:10471000FB6803F10473DA00BB6813449B007B6100
:104720007B697A681A601C37BD465DF8047B704768
:1047300080B584B000AF78601D4B5B68FB607B6820
:10474000002B03D11B484A2104F05CF90020FFF73D
:10475000BDFFFB6823F4830323F01F03FB607B682A
:104760005B68FA681343FB607B681B7A1A46FB6838
:104770001343FB607B685B7A1A46FB681343FB605C
:104780007B68DB68FA681343FB607B681B8A1A4608
:10479000FB681343FB60064AFB6853607B681B7829
:1047A000002B02D00120FFF791FF1037BD4680BDDE
:1047B00000A0084028CA000080B485B000AF78602F
:1047C0000D4B5B68FB60FB6823F48033FB607B6808
:1047D000002B08D0B3F5803F00D005E0FB6843F420
:1047E0008033FB6000E000BF034AFB68536014376E
:1047F000BD465DF8047B704700A0084080B483B0DC
:1048000000AF03460A46FB8013467B717B79002B81
:1048100006D00949084B9A68FB8813438B6006E071
:104820000549054B9A68FB88DB4313408B600C37C6
:10483000BD465DF8047B704700A0084080B584B099
:1048400000AFF860B9601346FB71FB68072B04DD0D
:104850006E484FF4817104F0D5F8BB68272B04DD56
:104860006A4840F2091104F0CDF8FB68072B00F20A
:10487000C38001A252F823F099480000C548000007
:10488000F14800001D490000494900007549000039
:10489000A1490000CD490000BB681F2B07DCBA68A6
:1048A000FB795B4811461A46FFF72CFFAAE0BB686C
:1048B000203BBB60BA68FB79564811461A46FFF7A1
:1048C00021FF9FE0BB681F2B07DCBA68FB795248C9
:1048D00011461A46FFF716FF94E0BB68203BBB6009
:1048E000BA68FB794D4811461A46FFF70BFF89E07D
:1048F000BB681F2B07DCBA68FB79494811461A468A
:10490000FFF700FF7EE0BB68203BBB60BA68FB7925
:10491000444811461A46FFF7F5FE73E0BB681F2BAB
:1049200007DCBA68FB79404811461A46FFF7EAFEF1
:1049300068E0BB68203BBB60BA68FB793B48114626
:104940001A46FFF7DFFE5DE0BB681F2B07DCBA6885
:10495000FB79374811461A46FFF7D4FE52E0BB6890
:10496000203BBB60BA68FB79324811461A46FFF714
:10497000C9FE47E0BB681F2B07DCBA68FB792E48ED
:1049800011461A46FFF7BEFE3CE0BB68203BBB6009
:10499000BA68FB79294811461A46FFF7B3FE31E0A1
:1049A000BB681F2B07DCBA68FB79254811461A46FD
:1049B000FFF7A8FE26E0BB68203BBB60BA68FB7926
:1049C000204811461A46FFF79DFE1BE0BB681F2BCF
:1049D00007DCBA68FB791C4811461A46FFF792FEBD
:1049E00010E0BB68203BBB60BA68FB7917481146F2
:1049F0001A46FFF787FE05E0044840F2731104F001
:104A000001F800BF1037BD4680BD00BF28CA0000B6
:104A100040A0084050A0084044A0084054A00840CE
:104A200048A0084058A008404CA008405CA008409E
:104A3000CCA00840B4A00840D0A00840B8A00840CE
:104A4000D4A00840BCA00840D8A00840C0A008409E
:104A500080B586B000AFF860B9607A60FB68072B5C
:104A600004DD5F484FF4C67103F0CCFFFB68072BF1
:104A700000F2AC8001A252F823F000BF9D4A000072
:104A8000C14A0000E54A0000094B00002D4B000020
:104A9000554B00007D4B0000A54B0000514B1B6C9B
:104AA0007B61BB68DB437A6913407B61BA687B68D2
:104AB00013407A6913437B614A4A7B6913648BE034
:104AC000484B5B6C7B61BB68DB437A6913407B615D
:104AD000BA687B6813407A6913437B61414A7B69FA
:104AE000536479E03F4B9B6C7B61BB68DB437A6925
:104AF00013407B61BA687B6813407A6913437B611A
:104B0000384A7B69936467E0364BDB6C7B61BB683A
:104B1000DB437A6913407B61BA687B6813407A692A
:104B200013437B612F4A7B69D36455E02D4BD3F847
:104B3000CC307B61BB68DB437A6913407B61BA6828
:104B40007B6813407A6913437B61264A7B69C2F80C
:104B5000CC3041E0234BD3F8D0307B61BB68DB43E2
:104B60007A6913407B61BA687B6813407A691343A2
:104B70007B611C4A7B69C2F8D0302DE0194BD3F819
:104B8000D4307B61BB68DB437A6913407B61BA68D0
:104B90007B6813407A6913437B61124A7B69C2F8D0
:104BA000D43019E00F4BD3F8D8307B61BB68DB43BE
:104BB0007A6913407B61BA687B6813407A69134352
:104BC0007B61084A7B69C2F8D83005E004484FF49D
:104BD000E67103F017FF00BF1837BD4680BD00BF68
:104BE00028CA000000A0084080B586B000AFF86079
:104BF000B9607A60FB68072B04DD5C484FF4F27102
:104C000003F000FFFB68072B00F2AC8001A252F812
:104C100023F000BF354C0000594C00007D4C0000D3
:104C2000A14C0000C54C0000ED4C0000154D0000EB
:104C30003D4D00004E4B1B6D7B61BB68DB437A69C9
:104C400013407B61BA687B6813407A6913437B61C8
:104C5000474A7B69136586E0454B5B6D7B61BB68AA
:104C6000DB437A6913407B61BA687B6813407A69D9
:104C700013437B613E4A7B69536574E03C4B9B6DFB
:104C80007B61BB68DB437A6913407B61BA687B68F0
:104C900013407A6913437B61354A7B69936562E00F
:104CA000334BDB6D7B61BB68DB437A6913407B610F
:104CB000BA687B6813407A6913437B612C4A7B692D
:104CC000D36550E02A4BD3F8B4307B61BB68DB433B
:104CD0007A6913407B61BA687B6813407A69134331
:104CE0007B61234A7B69C2F8B4303CE0204BD3F8A7
:104CF000B8307B61BB68DB437A6913407B61BA687B
:104D00007B6813407A6913437B61194A7B69C2F857
:104D1000B83028E0164BD3F8BC307B61BB68DB436E
:104D20007A6913407B61BA687B6813407A691343E0
:104D30007B610F4A7B69C2F8BC3014E00C4BD3F89E
:104D4000C0307B61BB68DB437A6913407B61BA6822
:104D50007B6813407A6913437B61054A7B69C2F81B
:104D6000C03000E000BF1837BD4680BD28CA000033
:104D700000A0084080B483B000AF78600649064BBD
:104D80005B6823F4E0127B6813434B600C37BD462D
:104D90005DF8047B704700BF00A0084080B582B07A
:104DA00000AF284B41F67132DA63264A254B9B68E7
:104DB00023F0010393604FF46020FEF7FFF8786062
:104DC0007B68214A93421CD97A6813469B0013449E
:104DD0005B0013441D4AA2FB0323DB087B607B6856
:104DE0001B4AA2FB03239B0C01333B601549154B67
:104DF0001B6D23F4803323F03F033A6813430B65A4
:104E00001DE07A681346DB009B1ADB009B1A0F4AF1
:104E1000A2FB0323DB087B607B680D4AA2FB032314
:104E20009B0C01333B600749064B1B6D23F4803319
:104E300023F03F033A68134343F480330B6508378C
:104E4000BD4680BD00000C40804F1200CDCCCCCCC4
:104E500083DE1B4380B400AF064A064B9B6823F0F9
:104E600001039360034B0022DA63BD465DF8047BC7
:104E7000704700BF00000C4080B584B000AF786080
:104E80007B68002B03D11A483E2103F0BBFD194B70
:104E90005B69DBB203F00F03DBB29B00FB73154BC6
:104EA0001B6903F0C0039B09DAB2FB7B1343FB735E
:104EB0007B68FA7B9A700F4B1B69DBB203F03F03F0
:104EC000DAB27B685A700B4B9B69DBB223F00F039D
:104ED000FB73084BDB6903F0F0031B09DAB2FB7BC1
:104EE0001343FB737B68FA7B1A701037BD4680BD95
:104EF00050CA0000D0FF0FE080B483B000AF7860EC
:104F00007B680D4A93420BD07B680C4A934207D0D2
:104F10007B680B4A934203D07B680A4A934201D1D3
:104F2000012300E0002303F00103DBB218460C3735
:104F3000BD465DF8047B704700000140000401405D
:104F400000080140000C014080B582B000AF7860DD
:104F500039607868FFF7D0FF0346002B03D134484F
:104F60004D2103F04FFD3B681B7883F00103DBB25A
:104F7000002B02D07B6802225A607B6800225A62B2
:104F80003B689B781A063B68DB781B041A433B6836
:104F90009B799B021A433B68DB791B0213433A68F7
:104FA000127A1A433B685B78002B01D0402300E063
:104FB00000231A433B685B7A002B01D0802300E07A
:104FC00000231A433B689B7A002B01D0202300E08A
:104FD00000231A433B68DB7A002B01D0102300E04A
:104FE00000231A433B681B79002B02D04FF4005377
:104FF00000E000231A433B685B79002B02D04FF09E
:10500000805300E000231A433B681B7B002B01D038
:10501000082300E000231A437B681A603B681B7872
:10502000002B02D07B6801225A600837BD4680BD44
:10503000D0CA000080B584B000AFF860B9607A6073
:10504000F868FFF759FF0346002B03D12748822158
:1050500003F0D8FCBB68022B03D92448832103F05A
:10506000D1FC7B681B789A067B685B781B061A4329
:105070007B689B781B041A437B68DB781B031A430D
:105080007B681B799B021A437B685B791B02134385
:105090007A6892791A437B68DB79002B02D04FF44F
:1050A000001300E000231A437B681B7A002B02D018
:1050B0004FF4801300E000231A437B685B7A002BD7
:1050C00001D0102300E000231A437B689B7A002B59
:1050D00001D0042300E000231A43F968BB680333BE
:1050E0001B010B441A601037BD4680BDD0CA0000BA
:1050F00080B586B000AFF860B9607A60FB707B68FD
:10510000002B03D14248B72103F07CFCBB68002B85
:1051100003D14048FDF752FFB860FB78202B15D033
:10512000202B02DC002B05D037E0402B1AD0602B5F
:1051300027D032E0BB681A097B689A4203D2344810
:10514000DD2103F05FFC10237B612BE0BB68DA08F4
:105150007B689A4203D22E48E22103F053FC0823D5
:105160007B611FE0BB682C4AA2FB03239A087B6883
:105170009A4203D22648E72103F044FC06237B61D0
:1051800010E0BB689A087B689A4203D22048EC2161
:1051900003F038FC04237B6104E01D48F22103F096
:1051A00031FC32E0BB689A007B69796801FB03F34C
:1051B0005B0813443B617B697A6802FB03F33A693D
:1051C000B2FBF3F33B613B69043B3B613B699B01F1
:1051D0003B613B69114A934204D90D484FF48471F5
:1051E00003F010FC3A690D4B13403B61FB681B68F0
:1051F00023F06002FB681A60FB681A68FB781A43A8
:10520000FB681A60FB683A695A611837BD4680BD71
:10521000E4CA000040810400ABAAAAAAC0FF1F0094
:1052200080B586B000AFF860B9607A607B68002B0B
:1052300004D1144840F2E31103F0E4FBBB68002BF7
:1052400003D11148FDF7BAFEB860BB685A1E7B68EF
:105250005B00B2FBF3F37B617B691B027B617B69C3
:1052600023F4FF1323F4FE53002B04D005484FF41E
:10527000FA7103F0C7FBFB687A695A611837BD46BB
:1052800080BD00BFE4CA00004081040080B584B046
:1052900000AF78600B46FB707B68144A934214D0D1
:1052A0007B68134A934210D07B68124A93420CD019
:1052B0007B68114A934208D07B68104A934204D01D
:1052C0000F4840F20F2103F09DFBFB78DB43FB60AE
:1052D000FB6803F00503FB60FB685A007B68DA603B
:1052E000FA787B68DA601037BD4680BD00C00040A8
:1052F00000C4004000C8004000E0004000E400405E
:10530000E4CA000080B582B000AF786039607B6885
:10531000264A934214D07B68254A934210D07B687A
:10532000244A93420CD07B68234A934208D07B687E
:10533000224A934204D0224840F2362103F062FB15
:10534000786800F0ABF83B689B7C002B05D07B684D
:105350001B6843F080427B681A603B68DB7C002B53
:1053600007D03B681B7D43F01003DBB21A467B6815
:105370009A653B685B7B1A463B681B8A13433A6815
:10538000D2891A437B685A603B6859683B689A68BF
:105390003B681B7B7868FFF7ABFE3B681B781A46BF
:1053A0007B68DA600837BD4680BD00BF00C00040A2
:1053B00000C4004000C8004000E0004000E400409D
:1053C000E4CA000080B582B000AF786039607B68C5
:1053D0002E4A93420CD07B682D4A934208D07B68BA
:1053E0002C4A934204D02C4840F2772103F00AFB68
:1053F000786800F053F87B681A683B681B8A43F0B2
:1054000001039BB219463B689B7B002B02D04FF4F3
:10541000806300E000230B431A437B681A607B68BB
:105420001A683B681B7D002B02D04FF0005300E050
:1054300000231A437B681A603B689B7C002B07D0D3
:105440003B68DB7C43F01003DBB21A467B689A654D
:105450003B681B7B43F480527B685A603B685A6808
:105460003B689B68786811461A46FFF7D9FE3B688F
:105470005B7B002B02D07B681022DA603B681B78D4
:105480001A467B68DA600837BD4680BD00C0004020
:1054900000C4004000C80040E4CA000080B582B0EB
:1054A00000AF78607B68254A934214D07B68244A19
:1054B000934210D07B68234A93420CD07B68224AE7
:1054C000934208D07B68214A934204D0204840F29E
:1054D000473103F097FA7B6840F6AA62DA607B688E
:1054E00000221A607B6841F205025A607B68002244
:1054F0009A607B6800225A617B680022DA647B68CC
:1055000041F6F9729A647B6800225A657B680B4AFF
:10551000934202D17B6800221A657B6800229A655B
:105520007B68074A934203D07B68064A934202D1C4
:105530007B680022DA650837BD4680BD00C00040A8
:1055400000C4004000C8004000E0004000E400400B
:10555000E4CA000080B483B000AF0346FB71084981
:1055600097F907305B09FA7902F01F02012000FA6F
:1055700002F241F823200C37BD465DF8047B7047EA
:1055800000E100E080B483B000AF0346FB7109493D
:1055900097F907305B09FA7902F01F02012000FA3F
:1055A00002F2603341F823200C37BD465DF8047BDE
:1055B000704700BF00E100E080B400AF0749074B2F
:1055C00003F5703308331B6823F0010201F57033D3
:1055D00008331A60BD465DF8047B704700400C40FC
:1055E00080B400AF0749074B03F5703308331B68DD
:1055F00043F0010201F5703308331A60BD465DF8CF
:10560000047B704700400C4080B400AF064B5B68E1
:1056100003F00103002B14BF01230023DBB2184663
:10562000BD465DF8047B704700400C4080B400AF7D
:10563000084B03F57033183300221A60054B03F54D
:10564000703318334FF4C0521A60BD465DF8047BC6
:10565000704700BF00400C4080B584B000AF786058
:105660000023FB7307F10C037868194600F010F86B
:105670000346002B07D1BB8903F00103002B14BFA5
:1056800001230023FB73FB7B18461037BD4680BD0A
:1056900080B487B000AF78603960FF23FB757B680A
:1056A0001B78002B20D07B689B785A01224B134437
:1056B0001B683B613B6903F44023FB60FB68B3F567
:1056C000402F03D0FB68B3F5002F2DD13B6903F4C5
:1056D0000013002B14BF01230023DBB29AB23B68F6
:1056E0001A800023FB751FE07B689B785A01134BDF
:1056F00013441B683B613B6903F44023FB60FB6878
:10570000B3F5402F03D0FB68B3F5002F0CD13B69F4
:1057100003F40013002B14BF01230023DBB29AB261
:105720003B681A800023FB75FB7D5BB218461C3773
:10573000BD465DF8047B704700091040000B104027
:1057400080B483B000AF7860054B7A6803F572339C
:1057500003F58A731A600C37BD465DF8047B704709
:1057600000400C4080B483B000AF7860054B7A688D
:1057700003F5723303F545731A600C37BD465DF8C7
:10578000047B704700400C4080B487B000AF786065
:10579000FF23FB747B681B78002B23D07B689B78EE
:1057A0005A01224B13441B6823F070537B617B69C1
:1057B00003F44023FB60FB68B3F5802F2ED07B6998
:1057C000002B03DA7B6943F080437B617B689B7825
:1057D0005A01164B13447A6942F400121A600023EE
:1057E000FB741BE07B689B785A01114B13441B68C8
:1057F00023F070537B617B6903F44023FB60FB68FB
:10580000B3F5802F0AD07B689B785A01084B13446C
:105810007A6942F400121A600023FB74FB7C5BB2CD
:1058200018461C37BD465DF8047B704700091040E0
:10583000000B104080B483B000AF7860396010492D
:105840007B6843F4002201F5723303F588731A6014
:105850000B490B4B03F5723303F580731B6823F080
:105860003C423B68134343F0044201F5723303F5B5
:1058700080731A600C37BD465DF8047B704700BF2B
:1058800000400C4080B483B000AF786039601049AC
:105890007B6843F4002201F5723303F544731A6008
:1058A0000B490B4B03F5723303F540731B6823F070
:1058B0003C423B68134343F0044201F5723303F565
:1058C00040731A600C37BD465DF8047B704700BF1B
:1058D00000400C4080B485B000AF78607B681B69E5
:1058E000002B04D10123FB600023BB600DE07B682B
:1058F0001B697A6892891344013B7A689289B3FBE9
:10590000F2F3FB607B681B69BB607B689B785A0184
:10591000164B13447A6892785101144A0A4412696A
:1059200002F00041BA681143FA68D2040A431A61CE
:105930007B689B785A010D4B13447A6892685A61D0
:105940007B689B785A01094B13447A68927851011D
:10595000064A0A44126822F03C4242F004421A60AD
:105960001437BD465DF8047B704700BF0009104046
:1059700080B485B000AF78607B681B69002B05D1CF
:105980000123FB607B689B89BB6011E07B681B691E
:105990007A6892891344013B7A689289B3FBF2F3E7
:1059A000FB607B689B891A46FB6803FB02F3BB60C4
:1059B0007B689B785A01184B13447A68927851019E
:1059C000154A0A44126902F06041BA681143FA6844
:1059D000D2040A431A617B68BA689A617B689B7833
:1059E0005A010D4B13447A6892685A617B689B7820
:1059F0005A01094B13447A6892785101064A0A44C5
:105A0000126822F03C4242F004421A601437BD464C
:105A10005DF8047B704700BF000B104080B487B076
:105A200000AF7860FF23FB757B681B78002B26D0C6
:105A30007B689B785A01294B13441B6823F07053F1
:105A40003B613B6903F44023FB60FB68B3F5402FE7
:105A500003D0FB68B3F5002F37D13B6943F0805387
:105A60003B613B6923F400133B617B689B785A01DF
:105A70001A4B13443A691A600023FB7525E07B68D2
:105A80009B785A01164B13441B6823F070533B61FB
:105A90003B6903F44023FB60FB68B3F5402F03D060
:105AA000FB68B3F5002F10D13B6943F080533B6195
:105AB0003B6923F400133B617B689B785A01084BD8
:105AC00013443A691A600023FB75FB7D5BB21846EC
:105AD0001C37BD465DF8047B704700BF00091040CD
